:020000040800F2
:1000000000000120C5E9040861EA040841FD030875
:10001000A5FD030861EA040861EA04080000000085
:1000200000000000000000000000000061EA040879
:1000300061EA04080000000061EA0408C1F6030850
:1000400061EA040861EA040861EA040861EA040854
:1000500061EA040861EA040805FF0308FDFE0308DD
:10006000F5FE0308EDFE0308E5FE030809DE0408BB
:10007000F9DD0408E9DD0408D9DD0408C5DD04085C
:10008000B1DD04089DDD040861EA040861EA0408A2
:1000900061EA040861EA040861EA0408DDFE030875
:1000A00021C1040819C2040811C1040841C204088E
:1000B00009C20408F9C10408E9C1040861EA040896
:1000C00061EA040819DE04083DDE040861EA040858
:1000D00061EA040849F7030839F7030829F7030818
:1000E000D5FE030861EA040861EA040801C10408B6
:1000F00031C1040861EA040859C1040889DD040813
:1001000061EA040861EA0408D9C1040861EA040844
:1001100019F7030809F7030869C1040885BA00083C
:1001200075DD040861DD04084DDD040839DD0408CF
:1001300025DD0408000000000000000000000000B1
:10014000000000000000000000000000E1CD0008F9
:1001500011DD0408FDDC0408E9DC040861EA040898
:1001600061EA040861EA040861EA040861EA040833
:1001700061EA040861EA04080000000000000000D1
:1001800061EA040861EA040861EA040861EA040813
:1001900061EA040861EA04080000000061EA04085A
:1001A00000000000000000000000000061EA0408F8
:1001B00061EA040861EA0408000000000000000091
:1001C000000000000000000000000000000000002F
:1001D00000000000000000000000000061EA0408C8
:0801E0001CE504000100000011
:1001E800031101000A0000000C4401207846012098
:1001F80000000000950D010874460120232001002D
:1002080010000000DC4301208846012000000000A7
:10021800E1090208844601200D1001004C0000008D
:10022800884301209C46012000000000D59E030859
:1002380098460120FD0101001E0000001043012026
:10024800EC4601200000000077D10308E8460120B1
:10025800FB010100010000000843012010470120B4
:1002680000000000CD4804080C470120FC010100F3
:1002780009000000D44101201847012000000000B7
:10028800DD48040814470120F701010006000000BA
:10029800A84101202847012000000000B05F06089F
:1002A80024470120F90101000400000098410120C1
:1002B800344701200000000005D203083047012020
:1002C8002A02010008000000504101203C4701209B
:1002D80000000000B65F060838470120340001001E
:1002E8001000000080400120484701200000000065
:1002F8004982020844470120110201000800000059
:10030800584001205C47012000000000BE5F06083D
:10031800584701201212010004000000504001203B
:100328006847012000000000C65F060864470120F6
:1003380018300100380000001840012070470120E3
:1003480000000000814904086C4701202052010088
:10035800080000008C3F0120AC470120000000008D
:100368003D710208A8470120061001002400000082
:10037800BC3E0120B847012000000000FD480408E9
:10038800B4470120000201000B000000103C0120CE
:10039800E04701200000000041410408DC4701203B
:1003A800130201000400000040280120F04701204A
:1003B80000000000CA5F0608EC470120FA010100AE
:1003C80003000000003B0120F84701200000000066
:1003D80025410408F44701200C0201000400000034
:1003E800283A012000480120000000007941040853
:1003F800FC470120FE0101001400000068440120B0
:100408000848012000000000494104080448012070
:100418000E02010002000000AC5C0120585D0120C2
:1004280000000000D05F0608545D0120161001008E
:1004380006000000384D0120605D0120000000002A
:10044800D25F06085C5D01202F1001002200000029
:10045800305D01206C5D012000000000D85F0608B7
:10046800685D01202322010010000000604A01207D
:10047800945D012000000000FC5F0608905D0120EB
:100488001E00010009000000785C0120A85D012021
:10049800000000000C600608A45D01200520010092
:1004A8000C000000204D0120B85D01200000000074
:1004B80018600608B45D0120123001001000000029
:1004C800404A0120C85D01200000000024600608A1
:1004D800C45D0120FD0701007C000000F25B0120E3
:1004E800DC5D01200000000039850108D85D01208D
:1004F800F59101006C0000003C4C01205C5E01207D
:1005080000000000F9940108585E0120261001003F
:100518000E000000DC5E0120CC5E0120000000001F
:1005280029110108C85E01200B3001001A000000E3
:10053800084A0120205F01200000000034600608FE
:100548001C5F01201F50010024000000284B0120DF
:10055800405F012000000000506006083C5F012059
:100568000502010004000000844D0120685F01209D
:100578000000000074600608645F012001010100AA
:100588000400000008650120B06F01200000000091
:1005980000000000AC6F0120000101000400000011
:1005A80000650120B86F012000000000786006088F
:1005B800B46F01200201010003000000FC64012067
:1005C800C06F01200000000035F90208BC6F01204F
:1005D800220201001C010000146D0120C86F0120D7
:1005E8000000000085480408C46F012001020100D2
:1005F8000B00000014650120E870012000000000D5
:1006080031410408E47001200202010003000000E7
:1006180010660120F87001200000000000000000B2
:10062800F47001201B02010010000000F065012099
:100638000071012000000000A1410408FC700120A5
:100648001B2001000C000000006101201471012032
:100658000000000095950108107101202102010099
:10066800F0000000805F01202471012000000000DC
:100678004594010820710120371001003000000066
:100688009066012018720120000000007C600608B6
:10069800147201201A0001000E000000FC800120E5
:1006A8001082012000000000AC6006080C820120C6
:1006B8002B00120024000000D88001202482012091
:1006C80000000000D16F0208208201201C020200F5
:1006D8001C000000287E01204C8201200000000040
:1006E800D943040848820120283001001600000080
:1006F800447E01206C82012000000000D917020806
:10070800688201200F0201000100000070800120B2
:100718008882012000000000BA6006088482012057
:100728001400010005000000107E012090820120C5
:1007380000000000BC6006088C8201200120010036
:100748000C000000BC7501209C8201200000000004
:10075800C2600608988201200C400600E4000000F0
:1007680070740120AC82012000000000F1F802083A
:10077800A88201200A900100240000002C740120A6
:100788009483012000000000990902089083012049
:100798000E300300BC01000068720120BC830120F8
:1007A80000000000B9710208B8830120131001008D
:1007B80004000000AC7701207C85012000000000C7
:1007C800D0600608788501201010010002000000A2
:1007D800A08C0120848D012000000000D460060850
:1007E800808D0120F831010006000000688D01208D
:1007F8008C8D012000000000D6600608888D01203D
:100808000300010001000000788D0120988D01206F
:100818000000000000000000948D01201900010074
:1008280005000000C08B0120A08D01200000000001
:10083800DC6006089C8D0120150010007000000087
:10084800588A0120AC8D0120000000000000000043
:10085800A88D01202A00080060000000048C0120F7
:10086800208E012000000000157102081C8E012056
:100878002C00040010000000948E0120848E0120BA
:1008880000000000FD6F0208808E0120292014005E
:1008980078000000E8870120A88E012000000000F1
:1008A80000000000A48E0120020001000C000000DE
:1008B80000950120189501200000000000000000AC
:1008C80014950120F62101000C000000C0930120BE
:1008D8002895012000000000E46006082495012006
:1008E80025201E002C010000D093012038950120FE
:1008F80000000000000000003495012029020100DA
:1009080040000000289201206896012000000000A5
:10091800F0600608649601202C0201000400000023
:1009280094930120AC960120000000003061060875
:10093800A89601200A02010014000000E892012094
:10094800D49601200000000071FA0208D096012018
:10095800031201003D0000008C9D0120E09D012054
:100968000000000034610608DC9D012038200100E9
:1009780003000000D8990120249E012000000000F7
:1009880072610608209E0120040008008000000013
:1009980078A30120F8A30120000000000000000057
:1009A8007CA50120081204001400000084A1012085
:1009B80084A5012000000000C940040880A501208A
:1009C8002802040004000000DCA001209CA50120EE
:1009D800000000009D41040898A50120270204009A
:1009E80004000000D8A00120A4A5012000000000F8
:1009F80091410408A0A50120160215003F0000003F
:100A08002C9E0120ACA50120000000001548040818
:100A1800A8A501201A0201003C000000E09E012068
:100A2800F0A5012000000000E1490408ECA5012020
:100A38001D02020006000000B0AB0120D8AB012067
:100A48000000000000000000D4AB01201F020800D5
:100A580010000000F4AB0120E4AB0120000000000E
:100A6800B5410408E0AB012006120400180000009C
:100A7800B8AB012008AC012000000000AD44040818
:100A880004AC01202700010004000000B8A60120E2
:100A980024AC0120000000007661060820AC01208B
:100AA8001002010001000000ECCA0120E8CA012080
:0C0AB800000000007A610608E4CA01207A
:082800000000000000000000D0
:10800000026C03463AB11A6CD20608D50022012050
:1080100083F83C207047426480F83C20F3E71A6CF8
:1080200049494A4811401A6841F00201F0B4196404
:108030004168474D21F44031416041685C6821430B
:1080400041605168186921F48071D3F808C0DF6875
:10805000516054689E6A44EA0024AE4254605468F9
:1080600024F040745460506840EA0C0050609068FE
:1080700020F400609060916841EA0701916054D05B
:108080009068DC6A20F07060906091680E439660A2
:10809000906820F040509060916821439160906812
:1080A0009C6920F002009060916841EA440191606F
:1080B00093F82010002941D05468596A44F40064B0
:1080C000481E5460516821F460415160516841EA92
:1080D00040315160D06A0025DC6920F470005E698F
:1080E000611ED0622846D46A44EA0154D46294687E
:1080F00024F400749460946893F8301044EA4124A6
:108100009460946824F480649460916841EA8621C4
:1081100091605D641A6C22F0030242F001021A645D
:10812000002283F83C20F0BC7047916821F0706118
:108130009160916821F040519160B0E7516821F45D
:1081400000615160C6E700BFFDEEFFFF0023014064
:108150000100000F124B30B41D686B6A28B943EA66
:1081600001430020AB6230BC7047AC6A013803EBBE
:1081700014440BD0002303F14002013305EB8202CB
:10818000DBB25268834204EB1244F4D3403044EA39
:10819000014405EB80004460002030BC704700BF04
:1081A00070180120037870B42BB30246C0F10105AA
:1081B000531912F8014FDBB2002CF9D101335B00E7
:1081C0000E4C03220B8084F8043484F805240178D3
:1081D00079B1022300265A1CE518023354FA82F2C0
:1081E00085F80414DBB282F8046410F8011F00293A
:1081F000F1D170BC70470223E2E700BF7018012084
:1082000030B5EFF31181802383F312880A4AD2F844
:108210000435D2F80845D2F80405D2F80855CAB298
:1082200082F31188013BA84294BF4FF40060002004
:108230001B1B184430BD00BF70180120012380F8BB
:1082400051307047014BD3F80C057047701801206E
:1082500001207047024BC3F81025C3F8141570476E
:1082600070180120024BC3F81825C3F81C1570477D
:108270007018012070477047212870B505D022285A
:1082800029D0202810D0002070BD0029FBD0072A5B
:10829000F9D1184B18791C685A799B79087100201C
:1082A0000C604A718B7170BD0029ECD0072AEAD1AD
:1082B0001148104B0C680E794D79D0F81425897946
:1082C0001C601E715D719971002ADCD02146D0F8C6
:1082D00010059047D7E70029D5D0022AD3D1064A06
:1082E000D2F81C35002BCED00988D2F81805984753
:1082F000C9E700BF0000012070180120002070476E
:1083000003460A2201481A80704700BF0800012076
:108310000346642201481A80704700BF1400012000
:10832000012901D000207047014BD3F89030184745
:1083300000000120012900D056E1024BD3F88C3017
:10834000184700BF00000120014BD3F888301847C0
:108350000000012010B40B780A46044603F0030322
:10836000012B05D0022B0BD000205DF8044B704789
:108370008B8843B9204611465DF8044B00F032BCAF
:108380008B88832BF6D0034B5DF8044BD3F88030F9
:10839000184700BF0000012038B5054B04460D46C4
:1083A000DB6F98472946204600F084FF002038BD47
:1083B0000000012038B5054B04460D469B6F9847D9
:1083C0002946204600F0AEFF002038BD0000012005
:1083D00011F0800F01F00F01F0B4D0F8A8424FF077
:1083E0001C0042D1C1EBC10500FB0140002604EB9B
:1083F000850500F5FE7085F8FD61457801708360A4
:10840000C27005B1C180022A01D10023037194F822
:10841000BC33012B1AD00122236884F8BC23417895
:10842000057891422CD003F5006605F00F0103F5A5
:1084300030638A40F16903EB451341EA0242F2617D
:108440001A68120405D5002384F8BC330020F0BC60
:10845000704782681D68C2F30A02C07818492A432F
:1084600042EA804211431960EDE7C1EBC1050126E4
:1084700000FB014004EB85053C3085F83D60BCE71E
:1084800005F00F06D3F81CC803F5106203F500676A
:10849000B14002EB451241EA0C01F961136819047D
:1084A000D1D483681668C3F30A03C0780449334300
:1084B00043EA804343EA855319431160C3E700BF91
:1084C00000800010F0B4002452004E1C2746030F19
:1084D000B0F1204F4FEA001003F1300503F13703EC
:1084E00034BF0D550B5537550234A242EFD1F0BCC5
:1084F000704700BF024808B5FFF754FE014808BDA9
:10850000E0910508741C0120024808B5FFF74AFEF7
:10851000014808BDF0910508741C01200B481A227F
:108520000B4B00681B680A80C01801D109487047CE
:10853000094B0822094910B51C68FFF7C3FF042244
:1085400007492046FFF7BEFF024810BD107AF01F12
:10855000187AF01FB0000120147AF01FB200012039
:10856000C2000120024808B5FFF71CFE014808BD03
:10857000FC910508741C0120024808B5FFF712FEA3
:10858000014808BD08920508741C01200423014815
:108590000B807047CC00012003460A2201481A8054
:1085A000704700BFD00001200346202201481A80F6
:1085B000704700BFDC0001200346202201481A80DA
:1085C000704700BFFC0001200346202201481A80AA
:1085D000704700BF1C01012003460A2201481A808F
:1085E000704700BF3C0101200023D0F898221846B4
:1085F000137370470346222201481A80704700BF58
:10860000480101200346222201481A80704700BF1A
:108610006C0101200346222201481A80704700BFE6
:108620009001012003460A2201481A80704700BFCA
:10863000B40101200346432201481A80704700BF5D
:10864000C00101200346432201481A80704700BF41
:10865000040201200346432201481A80704700BFEC
:1086600048020120D0F8943283B110B5D0F890427E
:1086700094F80002FF2807D09B68214694F8012255
:108680009847FF2384F80032002010BD0020704777
:1086900001F00F01D0F8A822C1EBC10102EB810269
:1086A00038B5D0F89032D0F89452D2F8144203F58D
:1086B0000371EA68D3F80402C3F80C429047002023
:1086C00038BD00BF08B5D0F88C325B6898470020F1
:1086D00008BD00BF08B5D0F88C321BB11B689847A5
:1086E00000B908BD022008BD0B4B01E0013B10D0D2
:1086F0000269002AFADA0369074A43F001030361B9
:1087000001E0013A05D0036913F00103F9D11846DD
:1087100070470320704700BF400D0300144B10B496
:10872000046C9C421AD800F53060002301290361D3
:10873000036943F400230361036943F018030361F1
:10874000036943F0C043036104D14261036843F00D
:108750008023036000205DF8044B7047D0F8003B95
:1087600000F53060002BE0DA00205DF8044B704724
:108770000A30544F38B5D0F8A84201F00F036268B0
:1087800093422BD80A062BD41C25C1EBC102002032
:1087900005FB014104EB820201F5FE7182F8FD0147
:1087A00001220B708A7094F8BC03904216D084F8B2
:1087B000BC234A782068012A09781DD000F5306270
:1087C00002EB41121568002D00DBF1B9116841F48C
:1087D000001111601BB3002384F8BC33002038BDA6
:1087E0001C21C3EBC302012001FB034104EB820205
:1087F0003C3182F83D00D3E700F5106202EB4112F4
:1088000015680029E2D0002DE0DB116821F08041DD
:108810001160116841F400111160002BDBD104F5E7
:108820007172217CFFF77AFFD5E700BF10B50446CF
:108830008021FFF79FFF00212046BDE8104099E707
:1088400011F0010307D090F8413003F02803282BE2
:108850000CBF4223F2238A0709D590F8412002F089
:108860002802282A0CBF43F0440343F0F4034A07CC
:10887000016848BF43F0B8030A6822EA03030B60AB
:10888000704700BFC16838B5022903689A699C69BE
:108890009A68DD680DD1C2F3C21282EA144212F066
:1088A000060206D1816C01318164816C022907D0F6
:1088B00038BD0421FFF7C4FF002380F8403038BDE5
:1088C00008218264D96180F8402038BD836B002282
:1088D000D3E90E0102650A6593F84120602A02D1AE
:1088E000202283F8412070470023202210B5134C2A
:1088F0004363C462036380F8412080F842304B0731
:1089000012D50268436A526A1A70436A028D0133B3
:1089100043624AB1438D013A013B02859BB24385D4
:10892000436C43F0040343640721FFF789FF1021E0
:1089300002680023D16180F8403010BD0000FFFFC5
:1089400038B5002580F8425090F84130292B04D0EA
:1089500090F841302A2B0BD038BD28222123012149
:1089600080F841200363FFF76BFF80F8405038BD6B
:1089700028222223022180F841200363FFF760FFB1
:1089800080F8405038BD00BF38B50025202280F85F
:10899000425090F84130212B0AD0122380F8412018
:1089A000022145630363FFF74BFF80F8405038BD59
:1089B000112380F84120012145630363FFF740FF45
:1089C00080F8405038BD00BF2DE9F84388460029A3
:1089D0004FD04718461E284C802507F1FF39EFF38A
:1089E000118185F31288D4F80425C9B2D4F808059A
:1089F000D4F80435D4F808C581F31188634594BFD1
:108A00004FF400630023121A1344012B1AD10120E2
:108A100036F04AFEEFF3118185F31288D4F804256D
:108A2000C9B2D4F80805D4F80435D4F8087581F330
:108A30001188BB4294BF4FF400630023121A134401
:108A4000012BE4D0EFF3118285F31288D4F80835B6
:108A5000D2B216F8011F234483F82015D4F8083544
:108A60000133C3F30A03C4F8083582F311884E4575
:108A7000B5D14046BDE8F88370180120F8B5002351
:108A800090F8505080F85030CDB10F4E96F8942F9A
:108A9000032A16D1D6F8CC7F00F13C0429462046A3
:108AA000FFF792FFD6F8CC3F2D1A0444DB1B322B84
:108AB00001D8002DF2D1B5FA85F04009F8BD0120AA
:108AC000FCE71846FAE700BF70180120002280F882
:108AD0005120D3E790F85020531C0244DBB280F8B9
:108AE000503082F83C1090F851200AB1132B00D975
:108AF000C4E77047F8B50B4E0D46144696F8943F00
:108B0000032B0ED1D6F8CC7F002C0ADD2146284657
:108B1000FFF75AFFD6F8CC3F241A0544DB1B322B53
:108B2000F2D9F8BD7018012010B50C4640F0B0FE27
:108B300050B9074B93F8D03F012B4FF012030CBFF5
:108B400004480548238010BD12230448238010BD2B
:108B500070180120B4020120A00201208C02012023
:108B600070B5D0F89062E6B101EB810500EB8505A8
:108B7000EB695BB1D0F8A802C1EBC10400EB84043F
:108B8000626CB3FBF2F402FB14341CB10020C6F893
:108B9000140270BD23462246EC610BF005FB204613
:108BA00070BD022070BD00BF002310B504241A461A
:108BB0001946C0F86C42D0F8A8020BF0F5FA002074
:108BC00010BD00BF10B5134602240A460021C0F8AC
:108BD0006C42C0E90733D0F8A8020BF0E5FA002098
:108BE00010BD00BF10B50C7882B00023D0F89822D9
:108BF00014F06004ADF8063016D0202C0ED14B785E
:108C0000023B092B0AD8DFE803F0333909090909C7
:108C100009093F2F90F87432032B5AD00224FFF732
:108C200005FE204602B010BD4B780B2BF6D80FF294
:108C3000080C5CF823F000BFBD8C00081D8C0008F8
:108C40001D8C00081D8C00081D8C00081D8C000860
:108C5000938C00081D8C00081D8C00081D8C0008DA
:108C6000158C0008AF8C00088B7800241360D8E7BF
:108C7000111D01220024FFF7A5FFD2E711460122B2
:108C80000024FFF79FFFCCE74B8800241B0A5360AA
:108C9000C7E74B881B0A222B1FD0212BBED1CA88C5
:108CA0001149092A28BF0922FFF78CFFB9E790F87C
:108CB0007432032BB2D18B789360B2E790F87422B0
:108CC000032AABD102220DF106011C46FFF77AFF01
:108CD000A7E702F108010122E6E7CA880349362A1C
:108CE00028BF3622E0E700BF00030120C8020120B0
:108CF0002DE9F0430D784FF0010883B0044680F869
:108D0000805205F01F0C4F7800F5207EC44580F896
:108D10008172CB788E7806EB0326B6B2A0F8826219
:108D20004A790B7903EB02239BB2A0F8843291F8C5
:108D300007908A79C0F86C8202EB092292B2A0F8FF
:108D40008622C0F870220DD0BCF1020F3ED0BCF1DB
:108D5000000F19D005F08001FFF70CFD002003B0D3
:108D6000BDE8F08305F06002402A67D06A0665D549
:108D700080212046FFF7FEFC20460021FFF7FAFC89
:108D8000002003B0BDE8F08305F06005202D6FD012
:108D9000402D6DD0002DEBD1092FE9D801A151F85C
:108DA00027F000BFBB8E0008E98E0008718D000817
:108DB000078F0008718D0008178F0008778F000853
:108DC000718D0008A58F0008858E000805F06005EC
:108DD000202D4DD0402D4BD0002DC9D1012FD9B21F
:108DE00000F00481032F00F0EF80002FC0D190F835
:108DF0007422022A00F0CC81032AB9D113F0800F2B
:108E000001F00F0303EB830300EB830340F0D881F1
:108E1000D3F84431002BABD001F07F03142202FBC6
:108E2000030202F5A072002B40F00D8200231360B4
:108E3000114620460222FFF7C5FE8FE794F8742200
:108E4000013A022A94D8DBB2032B91D8D4F88C32A1
:108E5000714620469B689847B4F88632002B7FF411
:108E60007DAF00287FF47AAF2046FFF79DFE75E7BF
:108E7000D4F88C32714620469B689847002003B096
:108E8000BDE8F083F6B2C14D012E85F8D46F3FF6F0
:108E90006FAF90F87432022B00F0BE81032B00F00C
:108EA000A9818021FFF766FC00212046FFF762FCC4
:108EB00031462046FFF706FC50E790F87432013B3C
:108EC000022B3FF655AF022A7FF452AF0122D0F8B1
:108ED0007C32C2600BB10323C360022204F10C0197
:108EE0002046FFF76FFE39E790F87432013B022B02
:108EF0003FF63EAF012E7FF431AF0023C0F87C3245
:108F0000FFF752FE2AE7012E7FF428AFC0F87C62FB
:108F1000FFF74AFE22E713437FF42AAF7F2E3FF686
:108F200027AF90F87432032B3FF422AFF1B2D0F8A0
:108F3000A83280F8761293F8BC23012A11D01A685F
:108F4000002083F83810D2F8001821F4FE61C2F82E
:108F50000018D2F8001841EA0611C2F8001883F888
:108F6000BC032046FFF720FE002E00F07E81022386
:108F700084F87432F2E6330A013B062B3FF6F8AE72
:108F800001A252F823F000BF09910008EF900008F9
:108F9000DD900008718D0008718D0008C7900008F1
:108FA00081900008012A7FF4E3AE90F87432022B1E
:108FB00000F2FF80002B3FF4DBAE0023014641F8B6
:108FC000083FFFF7FFFDC9E690F87432022B00F06E
:108FD000D380032B7FF4CCAE4F063FF445AF56EA67
:108FE00002037FF441AFFFF7C5FB3DE790F8742221
:108FF000022A00F0C180032A7FF4BAAE002E7FF46B
:10900000ADAE48063FF430AFD4F8A80201F00F012E
:10901000426891423FF628AF13F0800F4FF01C03D7
:1090200040F0278103FB01020025134602F5FE7282
:1090300083F8FD5100231170937090F8BC33012B1D
:109040003FF412AF0121036880F8BC135578117802
:10905000012D0CBF03F5106303F5306303EB4113DF
:10906000196821F400111960D278023A012A03D854
:109070001A6842F080521A60002380F8BC33F3E68D
:10908000037C002B7FF474AED0F88C320DF1060017
:109090001B6B984707234370BDF806306BB1B4F8DB
:1090A0008622002A3FF4E0AE9A420146204628BFBD
:1090B0001A46ADF80620FFF785FDB4F88632002B7E
:1090C0007FF44CAED0E6037C002B7FF451AED0F899
:1090D0008C320DF106005B6B9847DDE7F6B2052E8A
:1090E0003FF646AEDFE806F0302820184038037C13
:1090F000002B40F09F80D0F88C320DF106009B6A67
:10910000984702234370C7E7D0F888320DF1060173
:10911000007C1B689847BFE7D0F888320DF1060144
:10912000007C1B699847B7E7D0F888320DF106013B
:10913000007CDB689847AFE7D0F888320DF1060174
:10914000007C9B689847A7E7D0F888320DF10601AC
:10915000007C5B6898479FE7D0F888320DF10601E4
:10916000007C9B69984797E7D0F888320DF106019B
:10917000007C5B6998478FE74D063FF4F9ADFFF738
:10918000F9FA20468021FFF7F5FAE7E5701801208B
:109190004A067FF4EDAD1B064FF000034FF00202CC
:1091A0004CBF00F1140100F5A0710B60FFF70AFD40
:1091B000D4E5032B7FF4DCAD011DFFF703FDCDE506
:1091C0009B69002B3FF4D4AD01F07F035A1C02EBE6
:1091D000820200EB8202002B3FF428AED0F8A812E6
:1091E0001C2000FB031393F83E30002B3BD00123DF
:1091F00013601DE67EB3416801293FF435AEC9B264
:10920000FFF760FA95F8D41F20466160FFF762FA15
:1092100002287FF429AEABE5002E3FF425AE0121F4
:109220000323416080F87432FFF754FA02287FF478
:109230001BAE9DE5D0F88C320DF10600DB6A984735
:109240000223437028E7D0F8A8321C2000FB01332A
:1092500093F8FE31C9E702233146466080F8743244
:10926000FFF730FA00E61360E2E5012384F8743278
:1092700074E503FB0102012513463C3283F83D509F
:10928000D8E600BF38B5044600250121D0F8A80271
:109290000AF0AEFF8121D4F8A802C4F858510AF0B0
:1092A000A7FFD4F8A002E56247F096FD2846C4F86F
:1092B000A05238BD38B504468321D0F8A802002555
:1092C0000AF096FFD4F89802656518B147F084FD5E
:1092D000C4F89852002038BD38B5044600258121D5
:1092E000D0F8A8020AF084FF0121D4F8A802E562B0
:1092F0000AF07EFFD4F8A8028221C4F858510AF07F
:1093000077FFD4F8903225644BB1D4F894325B687F
:109310009847D4F8900247F05FFDC4F890520020BF
:1093200038BD00BF10B50823032283210446FFF790
:109330004FF801231020636547F046FDC4F89802FA
:1093400018B103460020187310BD022010BD00BFE5
:10935000154BDB68C3F3022310B4C3F107041A1DD5
:10936000042C28BF0424062A4FF0FF328CBF033B95
:109370000023A240002821EA020101FA03F108DBE0
:1093800009010A4BC9B2034483F800135DF8044B8A
:10939000704700F00F000901054BC9B2034419766C
:1093A0005DF8044B704700BF00ED00E000E100E015
:1093B000FCEC00E070B50446006882B0820AA2F5B9
:1093C0008012522A03D8244DAE5C0D2E01D902B072
:1093D00070BD224A002142F0A7FF214800EB861011
:1093E0000BF058F821681F4A002305F1540001E0F2
:1093F00050F8332091420CD001330E2BF8D10121CB
:109400000020FFF7A5FF002002B0BDE870400AF081
:1094100075BF05EBC303012193F9590093F8594037
:109420000190FFF795FF01980AF068FF1B2C08D107
:1094300001211920FFF78CFF0B4B4FF000721A60CF
:10944000C5E72E2CC3D101212C20FFF781FF064B4D
:109450004FF480525A60BAE72811050840420F00C5
:10946000482801200000014000E100E030B5264C12
:109470000022264841F28731D4F8E03283B0244DEF
:10948000A0FB030304F52870C4F8A052DB0C013BD9
:10949000C4E9AB12C4E9A9320AF06EFF1D4B0621E4
:1094A00037201A6C42F020021A641B6C03F0200370
:1094B0000193019BFFF74CFFD4F8A0324FF400005A
:1094C0001549164A4860D96841F00101D960996888
:1094D0000A40062A06D0B2F5803F03D01A6842F04F
:1094E00001021A600E4B00200E49D3F8B02F03F58D
:1094F000A464C3F81C05C2F81002C3F81405C2E93D
:10950000811403B030BD00BF6829012083DE1B43F6
:10951000001400400038024000E100E007000100B4
:10952000701801204C2C012038B50F4B0F4AD3F88E
:10953000E032A2FB03239B09013BB3F1807F10D2F1
:109540000B4A0024F0200B490725536081F82300C3
:10955000214694604FF0FF301560FFF7F9FE20467A
:1095600038BD012038BD00BF68290120D34D6210ED
:1095700010E000E000ED00E04309012200F01F00D0
:1095800084B0013B02FA00F0032B0BD8DFE803F0B4
:1095900015021E0C124B5A6C02435A645A6C10404E
:1095A0000090009B04B070470D4B1A6B02431A6386
:1095B0001A6B10400390039BF4E7094B5A6B02436C
:1095C0005A635A6B10400290029BEBE7044B1A6CF3
:1095D00002431A641A6C10400190019BE2E700BF3D
:1095E0000038024010B4B8B10D4CD4F8E43A102B56
:1095F00005D1052100205DF8044B36F031BC03EBAA
:109600004302224482F8E91A012182F8E80A0B4455
:1096100082F8EA1AC4F8E43A5DF8044B704700BFD8
:1096200068290120034690F83C00012800F03E81A3
:109630000220F0B4012483F83D0083F83C40142A52
:1096400045D8DFE812F04D004400440044007B00A0
:10965000440044004400DA00440044004400AA00EE
:109660004400440044000601440044004400150046
:109670001A688E68156A0F6825F48015AB4C156260
:10968000106A556820F40010D2F854C040EA065021
:10969000A74E0CEA0404B24244EA072400F0088111
:1096A00006F58066B24200F003814E68556054654D
:1096B000D6651062506D0C6940F400605065506DC5
:1096C00020F480605065516D41EA0421516500220B
:1096D0000121104683F83D1083F83C20F0BC704710
:1096E0001A68D1F808C0156A0F6825F00105914C79
:1096F0001562106A5668956920F002002C408C4D66
:1097000040EA0C00AA4244EA070400F0DD8005F5B7
:109710008065AA4200F0D8804D6856609461556318
:10972000106290690C6940F008009061906920F027
:1097300004009061916921439161C8E71A68D1F8EA
:1097400008C0156A0F6825F010057B4C1562106A79
:109750005668956920F020002C40754D40EA0C10A9
:10976000AA4244EA072400F0C38005F58065AA42B6
:1097700000F0BE804D6856609461956310629069F8
:109780000C6940F400609061906920F48060906101
:10979000916941EA0421916199E71A688E68156A16
:1097A0000F6825F48055644C1562106A556820F4E2
:1097B0000050D2F81CC040EA06305D4E0CEA0404AA
:1097C000B24244EA072400F08D8006F58066B2427A
:1097D00000F088804E685560D46116641062D069CC
:1097E0000C6940F40060D061D06920F48060D061E1
:1097F000D16941EA0421D16169E71A68D1F808C04A
:10980000156A0F6825F480754A4C1562106A56680F
:10981000D56920F400702C40454D40EA0C20AA4246
:1098200044EA070473D005F58065AA426FD04D68FD
:109830005660D461D5631062D0690C6940F00800AD
:10984000D061D06920F00400D061D1692143D16199
:109850003DE71A688E68156A0F6825F48035374C25
:109860001562106A556820F40030D2F854C040EAFE
:1098700006402F4E0CEA0404B24244EA07041DD00D
:1098800006F58066B24219D04E68556054659665FB
:109890001062506D0C6940F008005065506D20F06A
:1098A00004005065516D2143516510E70220704757
:1098B00025F480254E6945EA8625F6E625F48035AF
:1098C0004E6945EA0625DFE726F4407C20F00800D3
:1098D0008E69CF684D693843354320F0040045EA6E
:1098E0000C0619E725F480454E6945EA861571E7AF
:1098F00026F4406C20F080008E69CF684D6940EA04
:109900000710354320F040004CEA850632E726F484
:10991000405C20F400608E69CF684D6940EA072002
:10992000354320F480604CEA051680E7FF8FFFFE88
:10993000000001408CFFFEFFFF8CFFFE8FFFFEFF4B
:10994000F8B53D4E96F8184B04EB4403670006EB60
:10995000C30393F81C3B032B44D8DFE803F0461BFA
:109960000F023C4406EBC404D4F8203B002B58D033
:10997000013B0025C4F8203B2846F8BD3B1906EB07
:10998000C303D3F8202B7AB1013A0025C3F8202B6A
:109990002846F8BD3B1906EBC303D3F8202B002A59
:1099A000F2D1022283F81C2B3C4406EBC40494F849
:1099B000283B013BDBB284F8283B4BBB0323D4F8A4
:1099C000240B84F81C3B47F09FFBC4F8200B064691
:1099D00047F07EFB80F00100002E0CBF002500F058
:1099E000010525BB01252846F8BD37F097FB054644
:1099F0000028F7D03C44012342F2107006EBC40467
:109A000084F81C3B47F080FBC4F8200B2846F8BDC7
:109A100001254FF47A7047F077FBC4F8200B2846F5
:109A2000F8BD47F06DFB80F00100C5B2B0E7013E24
:109A3000C4F8206BACE700BF6829012003681878E0
:109A4000012801D00020704793F90430074A03EB46
:109A5000430302EB431393F8D12B202AF3D1D3F81D
:109A6000903B9869C0F3C030704700BF682901205F
:109A700030B58DB0FF210023012204460DF107050A
:109A80008DF8071002A904928DF814208DF8282073
:109A90000B93CDE90253CDE90633CDE9083336F017
:109AA00003FD2268136A002BFCD10DB030BD00BF4E
:109AB0002DE9F0415E4F00234FF4F07206468846D0
:109AC00007F55060202187F8FC3C87F8FD3C47F003
:109AD000B3F9584C4FF4F072202107F56E6047F04F
:109AE000ABF9322035F0E0FD14F8373C002B00F0E4
:109AF000938014F8361CA4F1340036F0DFFD002802
:109B000000F08A8014F8370C35F008FF054644F859
:109B10002C0C35F0E9FF00287ED00DB12323EB801B
:109B20000D21284635F09EFF54F82C0C35F0F0FF3F
:109B3000414836F0FFFD0346404824F8303CFFF72B
:109B400097FF8C213D4836F009FE1B2867D1012282
:109B500054F82C3C87F8FC2C0BB12322DA804022ED
:109B60000A21364836F046FE8A21344836F0F6FDA2
:109B700014F8383CC0F3801584F86450002B44D0AE
:109B8000022B3BD12E4836F0D5FD0346A4F86600E3
:109B900094F86820182A10D1D7F8E02229495208F1
:109BA000A4F86C80A4F86E50A4F87030B2FBF3F205
:109BB000A1FB0212520BA4F87220204802220021BD
:109BC00024F8303C36F016FEC8201C4D35F060FD00
:109BD0008021284636F0C2FD10F00200F8D17278DC
:109BE000B3783178C2F12002C3F1100384F87520F4
:109BF00084F8763084F87410BDE8F081124836F0AD
:109C000099FD0346A4F86600C2E70B4836F092FDC2
:109C10000346A4F86600BBE76FF00100ECE754F8D8
:109C20002C0C202135F01EFF4FF0FF30E4E700BF81
:109C300068290120603A0120404B4C002C3A012059
:109C4000002D31015917B7D180969800084800239C
:109C5000024611780632022904D00133062BF8D1CE
:109C60000020704703EB430300EB4300704700BF45
:109C7000D83A01202DE9F041794C82B0242200210C
:109C800004F1780047F0D8F8002394F8A160C4F8F4
:109C90009C30002E3AD1D4F840315BB39B6A4BB371
:109CA0007048984783682BB303880025DFF8C8C144
:109CB000013B614660469BB207780630032F1DD0FA
:109CC0000135062DF8D1002208780631022800F06F
:109CD00086800132062AF7D1D4F89C10052909D0D4
:109CE00002FB01C20131C4F89C10022000219380C4
:109CF00010705180304602B0BDE8F081062303FBAE
:109D00000545B5F87A30013B9BB2DCE704F1A805C4
:109D100094F8A000C4F8A45008B90026BBE735F0B9
:109D2000FDFDC4F8B00035F0DFFE0028F5D0314667
:109D3000284636F0C3FC06460028EED0D4F8A430FE
:109D400004F5A0729868C3F8942008B12023C3805A
:109D50000D21002535F086FED4F8A4300C27986834
:109D600035F0D6FE404836F0E5FCD4F8A430014684
:109D7000012232209980C4F8603184F8642135F0E2
:109D800093FC04239F21D4F8A4000DEB030201955A
:109D900036F00CFD9DF805009DF804102A460002DF
:109DA0009DF80630314D40EA0140184301E08842F9
:109DB00019D0D3B2013207FB0353D3F8C4100029E2
:109DC000F5D194F8A0000E46A4F84411A4F850115F
:109DD000C4E9521135F0A2FD36F046FB5BE70621DF
:109DE00001FB02C281E7B3F8CE204FF00008B3F8C0
:109DF000CC7015021E49B3F8CA00B3F8C83001FB95
:109E000000F0C4F8485101FB03F14FF4807305FBE7
:109E100007F5A4F85021C4F84C51A4F8447184F813
:109E20005281A4F84631C4E95C1036F083FCD4F8C2
:109E30006011B5F1807F888006D801220D4B84F82F
:109E40005921C4F8403126E70123B7250846424688
:109E5000694684F858318DF8005036F0F3FCECE791
:109E6000603A0120A03B0120404B4C00281105081E
:109E700040420F00D0120508D83A012099B10A6B70
:109E8000824216D9154BD3F8A421914221D34C39E3
:109E900091421ED30B6B9842F9D38B6B9842F6D844
:109EA0000B46184670470D4BD3F8A4110A6B90422D
:109EB00012D30B680BB9F4E70A6B90420B4602D33E
:109EC0008A6B9042EDD951F84C3F002BF4D11846E3
:109ED00070470023184670470A46D8E7603A0120C9
:109EE0002DE9F047CC0143D1034622494FF0FF3220
:109EF000022443F8081B7E2642601846DFF878806B
:109F00002644051D6FF07047D8F8A8914FF0010A5C
:109F1000013E494608E0A3421CD0631C45F8043CBE
:109F2000321B1C460435CAB10B6BA34202D88B6BA3
:109F3000A34204D22046FFF7A1FF014690B10A795F
:109F40004B6B002AE7D1A34204D0E6D2631C45F84C
:109F5000042CE5E7631C45F8047CE1E7C8F8A81188
:109F6000BDE8F087321B631C494645F804ACD8E7CE
:109F70008026C3E7F8FFFF0F603A01200A449142B0
:109F800019D0013910B4541E11F8012F0823504084
:109F900002E0013BD0B209D010F0800F4FEA40023E
:109FA000F7D082F0D500013BC0B2F5D1A142EBD190
:109FB0005DF8044B704770472DE9F0470023194DB9
:109FC00084B0074695F9B59105F5DE764FF0B60AEF
:109FD00000EB010805F25C451C46D6F800C030468F
:109FE00000226946E036BCF1000F14D09CF838C05E
:109FF000BCF1140F0FD019F1020F01D0CC450AD1DA
:10A00000CDE90244CDE90078ADF808A08DF80D4007
:10A0100027F09AFA0346B542DFD1184604B0BDE8EE
:10A02000F08700BF603A0120094B93F85E34042B9F
:10A0300008D9053B032B08D801231A4600B1037049
:10A040001046704700230122F8E700231A46F5E77F
:10A05000603A01202DE9F0479AB004460D461746B4
:10A060009846DDF89090DDE9226A02E0206835F03C
:10A0700087FB206835F08CFB0028F7D1014664226D
:10A0800001A846F0D9FE264B8DF80450CDF85CA00F
:10A090000293002D40D0AB1E012B3FD9042D14BFDD
:10A0A000002303231F4A8DF805300123D2F8CC2F5B
:10A0B000039616448DF85B30CDE90594049637B1CC
:10A0C0004246394607A846F045FE8DF85A80164E9E
:10A0D000002396F8C2941893B9F1000F19D196F89D
:10A0E000C104642201A902FB006000F2C44046F0F2
:10A0F00031FE012386F8C19486F8C234236843B147
:10A1000043463A46294620461AB0BDE8F04714F0C7
:10A110001DBB1AB0BDE8F0870523C3E70223C1E7E2
:10A12000E03E012070180120603A01202DE9F04F37
:10A13000DFF8DC81DFF8DC91D8ED017A08F5AF6358
:10A1400099F82C25F8EE677A2DED028BC3ED007A95
:10A1500083B0002A4ED1614EC8F8802598F8841546
:10A160003278D9B1B9F832350024DFED5D5A07EE07
:10A17000103ADFED5C6A5C4BB8EE477A67EEA66A90
:10A1800003EBC10085EE876A36EE266A86EE867A94
:10A190001C60083303ED017A9842F9D199F87E34B6
:10A1A0009FED525A06EE103A96F8583B9FED507AC2
:10A1B0001A44B8EEC66A27EE877ADFED4E6A12FBC4
:10A1C00001F14D4AC5EE065AC9B207EE901AF8EEF3
:10A1D000E77AE7EE876AF7EE667AFCEEE77AC2ED99
:10A1E000005A17EE903A88F8D43603B0BDEC028BD3
:10A1F000BDE8F08FFCEEE77A9FED404A99F82D1507
:10A20000B9F83035F8EE674A06EE101A002107EE6D
:10A21000103A324EB8EE466AC4EE245A0191B9F8AB
:10A220002E1501239FED365A06EE901AC6ED057ADB
:10A2300098F88415B8EEC77A9FED328AF8EE666A10
:10A24000C8F88065327067EE057A86ED016A88F895
:10A250007C35C6ED036AC6ED047AC6ED025A89B3B1
:10A26000294B4FF0000B019903EB010A12B3AAF13D
:10A2700018045746002507EE905A01223846B0EEE2
:10A28000481AB8EEE70AD6ED017AD6ED040A15446D
:10A290007169283720EE270A283446F001FF84ED43
:10A2A000028A84ED018A84ED048A84ED038A32787F
:10A2B0009542E0DB0BF1010B98F884150AF1780A5E
:10A2C0008B45D3DB019B03F57073B3F5346F0193BA
:10A2D000C5D10E4BD3ED007A43E700BF24370020F1
:10A2E00083F9223EBD378635943F012055555540B0
:10A2F0006E12833A48E1FA3E9C0800200060EA486A
:10A300000AD7233C000000003C370020440700200F
:10A31000CC010020603A0120014488420ED003465F
:10A32000074810B4074C13F8012B04FB00F09942C6
:10A3300080EA0200F7D15DF8044B7047004870478F
:10A34000C59D1C8193010001334A0023334910B499
:10A35000C2F88C354CF25034D2F8900504E0D2F8B3
:10A3600090351B1AA34210D8CB68DB03F7D4CC6816
:10A3700014F4F9740DD1C86810F0010002D0012363
:10A380002046CB605DF8044B704703205DF8044B1A
:10A390007047CB68990705D5D2F88C3543F0200378
:10A3A000C2F88C351D4BDB68DB0605D5D2F88C3541
:10A3B00043F01003C2F88C35184BDB689C0605D5BA
:10A3C000D2F88C3543F00803C2F88C35134BDB68A8
:10A3D000580605D5D2F88C3543F00403C2F88C3505
:10A3E0000E4BDB68190605D5D2F88C3543F0020315
:10A3F000C2F88C35094BDB68DB0505D5D2F88C3506
:10A4000043F04003C2F88C35044B4FF4F97201203D
:10A410005DF8044BDA607047603A0120003C02406E
:10A420000C480D4BD0F8AC1510B48A1E0B4C2231E1
:10A43000C0F89C35B0F8CA351B01A4FB03C3DB0888
:10A44000A3F5B06322F8023F9142F3D15DF8044BCB
:10A45000704700BF603A01202D0C0208CDCCCCCC57
:10A4600070B5084C251D2E4614F8010B27F0DAFABA
:10A4700028B10378B44205F8013BF5D170BDFF2344
:10A48000F8E700BF504001202DE9F0471C4F01269E
:10A490004FF03C094FF0000807F10805B24617F8E5
:10A4A000010B35F03BFA044690B180F80690C67176
:10A4B000FB7803F07F02012A17D013F0800F2046AB
:10A4C0000CD185F8048035F01DFB85F805802C60E3
:10A4D00001360835052EE2D1BDE8F08785F804A0E5
:10A4E00035F016FB85F805A0F1E71B0605D4012120
:10A4F000204635F0B7FAFB78DFE735F009FBF6E7E1
:10A50000584001202DE9F047204E82B000244FF042
:10A510000409DFF87C8006F10C05A6F2246716F822
:10A5200001AB5046BAF1000F2CD035F0F7F90134E9
:10A53000034604215046E4B26B6113B183F80690E0
:10A54000DC71224634F08AFF02218246D0B168696C
:10A550009AF8082035F032FAB7F82236B7F820C654
:10A56000002051460A4A01902846CDF800C018350F
:10A57000B8FBF3F39BB226F0CFFB0123082C05F8C0
:10A58000073CCCD102B0BDE8F08700BF8440012079
:10A5900040420F0007EE900ADFEDAF5AAF4B0022AA
:10A5A000B8EE677ADFEDAE4AB3F8F01685EE874A6B
:10A5B00006EE101AB3F8F416DFEDAA5A07EE901A59
:10A5C000B3F8F216B8EE466A06EE901AF8EEE77A9D
:10A5D000F8EEE66A36EE065A67EEA47A2DE9F04FF9
:10A5E000C6FE856AA04D2DED048BB4EEE54A05F557
:10A5F000DB6993F8F64685B0C5F82807F1EE10FA46
:10A6000089ED016AC5F8E446C5F8E826C9ED026A95
:10A61000C9ED007A02D51446C5F8E426F6EE004AE4
:10A620009FED925AF7EE003A914927EE055A9FEDB9
:10A63000912A64EE247A0B46F0EE002A9FED8E3AC2
:10A64000143381ED045A87EEA67A01F5A6770393B9
:10A6500001F12C0691ED055A884A12F85C2C87FE10
:10A66000237ABDEEC77AF8EEC77A17EE103A012BBF
:10A67000C5F88439C4EE275AB8BF0123029383EE8C
:10A68000A74A65EE825A86EE257AA1EC014AC1ED11
:10A69000005AC6EEA57A37EE247A87FE227ABDEEFE
:10A6A000C77A77EEA47A17EE101AC7FEC37AFDEECA
:10A6B000E77A01F1FF38C5F8901917EE901AB8F152
:10A6C000230F01F10100A8BF4FF02308C5F894192A
:10A6D0002328834628EAE878A8BF4FF0230B5B467F
:10A6E0008045C8BF43460093A3EB0803019362BBB8
:10A6F000624B9346DFED629AA3F1580A9FED619A8F
:10A7000007EE90BA0BF1010B0AF1080AF8EEE78A9E
:10A7100068EEA98AB0EE680A3EF038FEB0EE408AD4
:10A72000B0EE680A3EF08EFFB0EE680A3EF08AFF97
:10A7300028EE098A20EE090ABBF1240F0AED028AED
:10A740000AED010ADCD19FED505A019A00234F48CF
:10A750009446029A9FED4E7A9CFBF2FA0AF10101AF
:10A76000A24614468E460099324646F80C1C46E92D
:10A77000053846E902E4A2EC017A9742FBD13A4659
:10A7800006F5107BD0ED757AD0F8D8C1C2ED007A0D
:10A79000083242F804CC5A45F8D106F515763D4A00
:10A7A00007F515779642DFD1039BB6EE008A544633
:10A7B000012283ED005A4FF0000A374B4FF000089A
:10A7C00000932E4B03F85C2C002C35DD09EB0A06B8
:10A7D000DDF800B0002707EE907AD9ED016A99ED17
:10A7E000027A06EE104AF8EEE77A012237EE667A30
:10A7F000D5F82817B8EEC66A06F1540077EE887AC5
:10A800001744B7EE001A283667EE877A87EE860A75
:10A8100030EE260AABEC010AD9ED000A46F040FC06
:10A82000D5F8E446C6F84480BC42C6F84080C6F875
:10A830004C80C6F84880CEDC009B0AF1C80A14336D
:10A84000BAF5167F009302D0D5F8E446BCE705B010
:10A85000BDEC048BBDE8F08F00247449603A012000
:10A860000AD7233C0000FA44CC0100209C5349370E
:10A87000540B0020398E633C00000C42C4120020AF
:10A88000C3B8B23D72F97F3FBC297E3F281105084D
:10A89000000000007C120020B808002070B50446BB
:10A8A00084B04FF400402FF05DFB88B300230321F8
:10A8B0004FF4E13590F904001A46029301914FF4E8
:10A8C000004100952FF0ADFB124BC3F8F806F8B12C
:10A8D000012C40F698024FF461714FF00A0608BF50
:10A8E0004FF496620C4D83F8FC4601200B4CA3F804
:10A8F00004270B4AC3F80067A3F80617A3F8081744
:10A90000C3F80C57C3F81047C3F8142704B070BD40
:10A910000020FBE7603A0120B58E0108019A01088A
:10A92000A98E01082DE9F041204C00234FF00508C5
:10A9300094F83B2704F5E76704F23C7584F8342764
:10A9400017F8010B5E1C20BB2860032E05F10405DF
:10A950003346F5D194F83417D4F83C07C94301F0D5
:10A96000010135F089F994F83417D4F8400781F0E3
:10A970000201C1F3400135F07FF994F83417D4F89F
:10A98000440781F00401BDE8F041C1F3800135F0D6
:10A9900073B934F0C3FF0121F3B2286010B180F81D
:10A9A0000680C371286835F05DF8CEE7603A012073
:10A9B000F0B5294C83B0B4F84C57A4F84E57EDB914
:10A9C00094F8480734F0AAFF94F84927C4F85007D0
:10A9D000003A18BF012284F8542748B194F84A1766
:10A9E0002B220029C28014BF1121012135F03AF831
:10A9F000002003B0BDE8F04035F046B994F8487740
:10AA000000222B21384634F029FD0646384634F022
:10AA100085FF00B10EB903B0F0BD2B22C4F86C075E
:10AA200002210027C280327A34F0C8FF0B4AA4F812
:10AA30007057314604F5EB600197B2FBF5F3C3F3B1
:10AA40004F059BB2009526F067F9D4F858371F6080
:10AA500084F86977DFE700BF603A012040420F00C9
:10AA60002DE9F84F254B00264FF0010993F87C277C
:10AA700003F2737703F5F26483F872275FFA86FBBB
:10AA8000012117F8010F01360BEB01024FF000080E
:10AA90005FFA82FA524634F0E1FC054638B3387862
:10AAA00004F80E8C04F80D8C04F80FBC04F8109C0C
:10AAB00044F8045C34F032FF022118B180F80690AB
:10AAC00080F807A02A7A34F079FF2846FEF772FC56
:10AAD0000B4B221D2146236028460A4BC4E901384E
:10AAE00041F0B6FB42466979286825F0F1FF082E4F
:10AAF00004F11C04C2D1BDE8F88F00BF603A012008
:10AB00009D0C0308BDF5020870B52B4C00222B4BA1
:10AB1000022194F8A808C4F8A038C4F86028C4F842
:10AB20006428C4F86828C4F89C28A4F8A42834F041
:10AB300095FC00283FD0224B0546026803F1C00077
:10AB4000597C11B159688A422AD018338342F7D10F
:10AB5000002394F8A808C4F88C5784F8803734F0A0
:10AB6000DDFE08B10223C3802A7A022134F026FFD9
:10AB70002846FEF71FFC134B134A0026C4F89037F3
:10AB80002846124B111FC4F89867C4F8943741F057
:10AB90005FFB324669792868BDE8704025F098BFB0
:10ABA000926A0B4801320B49D0F8E032B3FBF2F362
:10ABB00081F80933CCE770BD603A012000FFFF0047
:10ABC0008C130020E5F50208F441012081F702080A
:10ABD000682901200000012070B5524E96F8C40586
:10ABE00034F09CFE96F8C55560B12D230446202113
:10ABF000C38034F037FF0A2034F04AFD204635F098
:10AC000055F918B9D6F8AC38DA0000D570BD013D59
:10AC1000092DFBD896F8C345CCB940202FF0A2F9F6
:10AC20000028F3D090F9043096F89515092BC8BF89
:10AC3000143B0A29334493F8B04866D093F8BA38E5
:10AC400096F8C225002A08BF1C46002CDED02046FC
:10AC500034F064FE054608B12D23C3800121284647
:10AC600034F000FF0121084635F050F80121284654
:10AC700035F002F83C2034F017FD0021012035F0BA
:10AC800045F896F8C5351BB3002400210134084669
:10AC900035F03CF80021022035F038F80021284634
:10ACA00034F0EAFF782034F0F3FC0121002035F085
:10ACB0002DF80121022035F029F80121284634F031
:10ACC000DBFF782034F0E4FC96F8C5359C42DCDBF1
:10ACD00096F8C3358BB9D6F8C43503F0FF13B3F536
:10ACE000803F93D1D6F8AC3813F080538ED186F8DC
:10ACF000C535BDE870403EF091BC322034F0D4FC44
:10AD00002846002134F0AEFEE5E7D6F8D0385B05E2
:10AD10007FF57CAF0CF014F800287FF477AF002C9F
:10AD200095D173E7603A012030B40438043A0C1F1F
:10AD300001F1080554F8043F52F8041FAC42A3EB9C
:10AD4000010340F8043FF5D130BC704738B5041E0C
:10AD50000D4611DB092C1FDC0846134B0021134A5A
:10AD6000A3FB04C34170DB0803EB8303A4EB4303A1
:10AD7000D35C0370284638BD64422D230846092C55
:10AD800000F8013BE9D9084B01460A22A3FB043035
:10AD9000C0083DF07BFFE0E703480A22A0FB043037
:10ADA000C0083DF073FFD8E7CDCCCCCC1492050899
:10ADB000344870B490F8D438A3F13001092958D838
:10ADC00000F6D40400F6E300224612F8015FA5F174
:10ADD0003001092904D88242F7D1002070BC7047A5
:10ADE000141B022C4BDD2848002101E010F8013B28
:10ADF00001EB8101161A044603EB4103022EA3F175
:10AE0000300303F0FF01F1DC204B03FB01F1A24210
:10AE10004FF000030ED903EB830314F8016B5B00C2
:10AE2000A242A3F13003334403F0FF03F3D11848E7
:10AE300000FB03F32E2D06D01648A0FB032370BCA5
:10AE400001EB9300704701320425002404EB8404D5
:10AE50001078013D303864000928A4B2204401D89C
:10AE6000013284B215F0FF05F0D1642202FB0433F5
:10AE7000E2E700211D4600F6D4020B46DAE7002186
:10AE8000054CC4E7603A01203543012080969800C4
:10AE900040420F00ABAAAAAA3443012038B50D46A0
:10AEA0000446FF2100682A4645F0C6FF22682A446E
:10AEB000226038BD0C461646054683B52DF0F2FAE1
:10AEC00020462DF0EFFA0021204B0846002E08BF47
:10AED0001E4634F01BFF0021012034F017FF2846E6
:10AEE00034F056FCB0B10121002034F00FFF2846A9
:10AEF00034F046FC0746204634F046FC0028FAD0E1
:10AF00003946204634F06AFC3846B04700210846EE
:10AF100034F0FCFE204634F03BFC0028DFD0012159
:10AF2000002034F0F3FE204634F02AFC0146284687
:10AF3000019134F029FC01990028F8D0284634F01A
:10AF40004DFC0021084634F0E1FEC8E7E14F03085C
:10AF5000F0B5002289B0234E04AF13460A61BC4607
:10AF6000C1E90022C1E902220268C2F3855040FA19
:10AF700003F46546E40703D59C5D05F8014BAC4638
:10AF80000133062BF3D1184DC2F303240023C2F37F
:10AF900005302C5D0DF119068CF80030DFF850C03B
:10AFA0008DF8184040FA03F43546E40704D513F849
:10AFB0000C4005F8014B2E460133062BF2D100233D
:10AFC000C2F3834506AC0846337002F00F0307490D
:10AFD000C2F303120097CDE901453CF055F909B0E1
:10AFE000F0BD00BF68920508609205083C92050814
:10AFF0005892050870B5094C0546D4F8E42862B1AA
:10B00000002601362D21D4F8E40836F05BF8AE4274
:10B01000F7DBBDE870403AF06DBA70BD603A0120D0
:10B0200038B5054608463CF0B5FC041E0D4B0FDB59
:10B0300093F88425944205DA21460B483BF096FAB2
:10B04000204638BDFF2C03D108483BF08FFAF7E7C4
:10B0500093F88425284606494FF0FF34013A3BF027
:10B060002BFAEDE7CC0100206F92050880920508CD
:10B070009392050830B583B04D1C009300230468FB
:10B080008572C272A469A04703B030BD03685B6CCF
:10B090000BB102211847704770B5114ED6F818321F
:10B0A00093F82E20D2B19B699847B8B1D6F81832E0
:10B0B00093F82C2072B106F507750024DB69E0B225
:10B0C000B5EC010A01349847D6F8183293F82C20D1
:10B0D0009442F3DB5B6ABDE87040184770BD00BF67
:10B0E000C412002038B51E4C0968D4F8EC5800682A
:10B0F000491B1C4DDFED1C6A00EE901AD4F8E818CD
:10B10000D5EDC37A1C46F8EEE00A401A60EEA70AB5
:10B1100007EE900AF8EEE77A20EEA07AB1EE670A21
:10B12000A7EEA77AF1EEC77A67EEA67AFCEEE77A89
:10B13000C2ED007A3EF0CCF89FED0C7ADFED0C7A90
:10B14000E0EE077AFDEEE77A17EE902A002A02DB9E
:10B15000C4ED007A38BD48F6A0431344236038BDDF
:10B16000603A0120000001202C7D8E3FA00CB345E9
:10B1700000A00C4638B50F4C034694F8071904F5A7
:10B18000106084F8033901F03F0101F10A058B1CBE
:10B19000083184F80259254484F805391EF04EF927
:10B1A00085F8FE0894F80239000A1C4484F8FF0868
:10B1B00038BD00BF603A012038B50A4C0025012295
:10B1C000802120462EF0BAFE30B194F904002EF012
:10B1D000E7FE08B1006838BD01350C34062DEED10C
:10B1E0000020F8E78843012038B5041F00F1080566
:10B1F00054F8043FD81780EA430018F0E9FCA54250
:10B20000F6D138BD054B002000214FF6FF72C3F880
:10B21000B402C3F8B012C3F8B8227047C4120020B9
:10B22000F8B57E4CDFED7E7A94EDB07A94F8A032DA
:10B23000B4F8A2622DED028BB8EE478A28EE278A79
:10B24000002B72D1D4F8AC7294F8BD12384623F0BA
:10B25000DDFC0F2894F8A132B8BF0F2085B2A4F806
:10B26000A252002B00F0C680AE4262D094F83C029D
:10B27000B4F8A43207EE905ADFED6A5A002206EEC7
:10B28000103AF8EE677A684B0021B8EE466AC5EED0
:10B29000A76A85EE867A76EE886AC8EE267A37EE59
:10B2A000087AC8EE076A00283CD159609960D960D5
:10B2B000C3ED047A01321033032AF4D100283ED0C2
:10B2C00094F8A632B4F8A852C4ED9F6AC4EDA37AEC
:10B2D000C4EDA77A1BBB94F8BD12D4F8AC0223F0DE
:10B2E00095FC0F28B8BF0F2080B28542A4F8A802B1
:10B2F00015D0A0B107EE900A9FED4A6AD4EDB16A6D
:10B30000F8EE677A494B86EE277A37EE267AC6EE54
:10B31000877AC3ED087AC3ED007AC3ED047ABDECF9
:10B32000028BF8BDC3ED047AC4E794F8A132002B78
:10B330005DD094F83C02002867D1354698E7002399
:10B3400094F8A622B4F8A852C4ED9F6AC4EDA37A7B
:10B35000C4EDA77AC4F87032C4F87432C4F87832F5
:10B36000C4F88032C4F88432C4F88832C4F8903209
:10B37000C4F89432C4F8983262B994F8BD12D4F883
:10B38000AC0223F043FC0F28B8BF0F2080B2054663
:10B39000A4F8A80294F8BC3284F8FD35002DBED084
:10B3A00007EE905A9FED1F6AD4EDB16A0022F8EEC5
:10B3B000677A1F4B012019469A6086EE277A84F837
:10B3C000FC0541F8042B1A610A605A619A611A62FD
:10B3D0005A629A62BDEC028B37EE267AC6EE877A05
:10B3E000C3ED037AC3ED077AC3ED0B7AF8BDD4F849
:10B3F000AC723546384694F8BE1223F007FC0F288D
:10B40000B8BF0F20A4F8A4022EE794F8A632B4F82F
:10B41000A852002B3FF45FAF81E700BFC4120020A9
:10B42000BD3786354E2DA63D001500209C18002006
:10B4300090180020012816D02F4B93F82336012BAB
:10B440002CD02E4BF6EE006ABEEE007ADFED2C7AA1
:10B4500003EB800090ED000A80FE660A80FE070A7A
:10B4600020EE270A7047274AF6EE006A224BBEEE0E
:10B47000007A02F68C11DFED227A93F8243691EDF2
:10B48000010A80FE660A80FE070A20EE270A23B121
:10B49000B5EEC00AF1EE10FA03DC70479FED1A0A10
:10B4A000704707EE903AB2F97619B2F98A39DFEDB2
:10B4B000176AF8EEE77ACB1A07EE103AB8EEC77AB9
:10B4C00027EE267AB4EEE77AF1EE10FAE6DA77EEB6
:10B4D000C77AB2EE047AF4EEC77AF1EE10FADCD84D
:10B4E000B1EE047A67EEA67A30EE470AA7EE807ACC
:10B4F000B0EE470A704700BFC4120020EC430120A1
:10B5000000004843603A012000000000CDCCCC3D53
:10B51000F8B5774C40F60302B4F8983913402DED96
:10B52000048BB0EE408A04D0B0EE480ABDEC048B28
:10B53000F8BD04EB4001B5EEC00ADFED6E7A00F114
:10B54000D40EB1F97429B1F98819F1EE10FA6A4EE6
:10B55000A2EB010206EB8E07C8BF4FF0010C00EE14
:10B56000102AD8BF4FF0FF3CD7F8C452B8EEC00A3B
:10B5700020EE270AB5EEC00AF1EE10FACCBF012189
:10B580004FF0FF31B5EB0C0218BF0122002D08BFB0
:10B590000022002A4CD106F5C063F0EEC07A93ED8C
:10B5A000007AF4EEC77AF1EE10FA07DD8C4508BF99
:10B5B000002D0CBF0122002200F08480002D45D018
:10B5C00007EE901AB0EE408A4C4BF8EEE77ADFEDCA
:10B5D0004C6A93ED006ADFED4B8A97EE878ADFEDC8
:10B5E0004A7A28EE068A88FE668A88FE278A002A1A
:10B5F0005BD196F80836984296D194F86830262B9D
:10B6000092D1B2EE049A20EE090A44F031F9B0EE7C
:10B61000480AA4F86E50A4F86C0044F029F928EE0A
:10B62000890AA4F8700044F023F9A4F872007BE7BB
:10B6300006F5C062F0EEC07AC7F8C43292ED007A27
:10B64000F4EEC77AF1EE10FA3ADC1A462F4B9FED72
:10B65000306A03EB8003D3ED077AF0EEE76AF4EE8D
:10B66000C66AF1EE10FA28DC9FED2A6A66EE866A59
:10B67000294BF0EE408A93ED006A67EE867AE6EE9B
:10B68000A78AF5EEC08AF0EEE87AF1EE10FAF4EE51
:10B69000477ACCBF01214FF0FF31F1EE10FA01DD06
:10B6A0008C4516D00025002AA3D01C4A00EB80034D
:10B6B000002102EB830359609BE7F7EE006AD7E7AE
:10B6C0008C45C2D106EB8E0E0D460122CEF8C41277
:10B6D00074E707EE901AB0EE688AD3ED026A00258F
:10B6E000F8EEE77A97EE878A28EE268ADDE700BF34
:10B6F000603A0120CDCCCC3DC4120020D0180020EF
:10B7000000007A440000000000007AC4CC01002050
:10B71000FFFFF9436F12033BC818002014190020E3
:10B7200070B50446744EC0B22DED048BF0EE408A25
:10B730000D781EF073FC714A06EB8403694207EE34
:10B74000905AD3F89C3907EE101AF8EEE76A82FB9C
:10B750000312DB17B8EEC77AC3EB621307EE903A19
:10B76000F8EEE77AE6EE807AF4EEC77AF1EE10FAB8
:10B7700005D407EE105AB8EE477A87FE677A06EBD3
:10B780004404DFED5F9A40F60100B6F89829B4F959
:10B790007439B4F988191040A3EB010307EE903A0D
:10B7A000F8EEE77AA7EEE97AB0EE478A07D0554B74
:10B7B000BDEC048B93ED000A27EE000A70BD1EF06D
:10B7C0002DFC0120B0EE409A1EF028FCB6F9743929
:10B7D000B0EEC00AB6F97629002B4B49B0EEC99AF3
:10B7E000B8BF5B42002A91F8C804B8BF52429BB26E
:10B7F00089FE009A92B29342B8BF134607EE903A80
:10B80000F8EEE77A67EEA97A78BB01F2C443F7EE67
:10B81000006A93ED007AB4EEE67AF1EE10FA57D4AE
:10B8200001F2BC4191ED007ADFED387AB4EEE77AAF
:10B83000F1EE10FA49D9DFED365AB7EE006AC5EEDF
:10B84000876AB0EE467AA9EE667AC7FE466AC6FEF9
:10B85000A76A304BB0EE680AD3ED007A68EE277A1B
:10B86000BDEC048BA7EEA60A70BD01F2BC439FEDB0
:10B87000276A93ED007AB4EEC67AF1EE10FA21DD74
:10B8800001F59861D1ED005AF4EEC65AF1EE10FAC6
:10B8900018DDDFED216A75EEE77AB7EE005A29EE82
:10B8A000269AC7EEA56AC9EE077AC6FEC56AC6FE25
:10B8B000866A77EE857A66EEA76AC6FEC56AC6FE18
:10B8C000866AC6E7F0EE466AC3E7F0EE676AC0E74D
:10B8D00076EEC76ADFED115A9FED116A01F2BC41A5
:10B8E00066EEA56AD1ED005A76EE677AA6EEA77AE3
:10B8F00027EE257A98E700BF603A01201F85EB51BB
:10B90000CDCCCC3D78170020C412002000000000F0
:10B910000000C8427C1700200000C8C2610BB63B83
:10B92000000034431C4991F8D4289AB3F0B400269F
:10B9300005463346304637461BB991F8D4482D2C7E
:10B9400022D02E2A18D0CA1800EB800092F8D448D2
:10B950004000A4F13002092A02D8A0F13002A01858
:10B960000E2B14D80133CA1892F8D428002AE3D138
:10B9700006B14042F0BC70470133002DF8D0CA1820
:10B980002A4482F8D478DEE701231E46EBE7002044
:10B99000F0BC704700207047603A01202DE9F0416B
:10B9A000A02301240B4F1825E6B2FF2B0BDCC5F1B9
:10B9B0001B0103F101083246DBB2C9B2D7F8A40972
:10B9C000FFF758FB4346013DEFD10134052CEAD186
:10B9D000BDE8F081603A01201FB503AC8DF80C3052
:10B9E000002300948DF80D300CF01EFB04B010BD48
:10B9F000F8B5054626201FF08DFF154C014610BBFB
:10BA0000D4F8A80990F838301E3B012B02D894F8DE
:10BA1000B5390BB133F0E2FE0E4F0026AE420ADB21
:10BA2000B4F8D6390133A4F8D6390B4BD3F8CC3F50
:10BA3000C4F8E839F8BD17F8011B0136D4F8A80995
:10BA400033F0CCFEEAE7002384F8E439EDE700BFE9
:10BA5000603A0120164401207018012010B51C2006
:10BA600033F05CFF0446112133F0FCFF204634F034
:10BA700049F8C82033F018FE2046BDE8104034F0E5
:10BA800047B800BF2DE9F0416A4CD4F8A0120B6909
:10BA90009E0702D5CB689D074CD40B69580702D589
:10BAA000CB685A073ED40B691B0702D5CB681F072A
:10BAB00030D40B69DE0602D5CB68DD0622D40B69D3
:10BAC000D80702D5CB68DA0741D40B691B0603D52A
:10BAD000CB681F0600F192800B69DE0503D5CB68A9
:10BAE0001D0600F18F800B695C0603D5CB685806F4
:10BAF00000F18C800B699A0602D5CB689B0621D495
:10BB0000BDE8F0816FF0100200230A61CA6984F871
:10BB1000BC32D4E76FF0080200230A61CA6984F8D6
:10BB2000BC32C6E76FF0040200230A618A6984F818
:10BB3000BC32B8E76FF0020200230A618A6984F818
:10BB4000BC32AAE76FF020030B61BDE8F0813A4BED
:10BB50006FF0010299420A61B7D1384DD5F8B06F44
:10BB6000D6F81432002BB0D1DFF8D880D8F8EC2901
:10BB700092B1D5F8047502F03F003A44C5F80425A7
:10BB8000D5F80425B2F5006F01D1C5F804350023BE
:10BB9000C8F8EC39002843D0D5F80425D5F8083585
:10BBA0009A4292D0D5F80425D5F808359A4231D971
:10BBB000D5F80475C7F50067D5F80405B7F5007F1B
:10BBC0001F4A28BF4FF40077D6F814320244C6F853
:10BBD0001072C6F80822002B7FF477AF0123D5F846
:10BBE000C80F8121C5F8507DC6F814323B4608F0D5
:10BBF000DBFAD4F8A012C8F8EC7966E76FF080039E
:10BC00000B6169E76FF480730B616CE76FF04003C1
:10BC10000B616FE7D5F80875D5F80435FF1ACBE747
:10BC2000D5F80425064BC6F810021344C6F80832AE
:10BC30004BE700BF68290120001400407018012064
:10BC4000901D0120603A01204B78012BF0B50D7852
:10BC500026D000F53060404C404B00EB45104D695C
:10BC60000669344004610469234003618B6805B1AF
:10BC70004B610469C3F31203012A44F400240461F4
:10BC8000046943EA0403036105D0036843F00443F5
:10BC900003600020F0BDCB68002BF6D04361F4E7D1
:10BCA0004B6993B300F510642B4FD1F808C004EB37
:10BCB00045142A4E6345D4F810E00EEA07072761C1
:10BCC000276906EA07062661266938D946F4002660
:10BCD000C1F814C0CCF31203012A2661266943EA95
:10BCE0000603236126D0BCF1000F08D005F00F0237
:10BCF0000125D0F8343895401D43C0F834582368E6
:10BD0000002043F004432360F0BD00F51060134EA3
:10BD1000A3F50023012A00EB4514206906EA00067A
:10BD20002661206940F400202061206903EA0003B5
:10BD30002361E4D10B69002BE1D06361DFE746F4B6
:10BD40000026C3F31203012A2661266943EA06038B
:10BD50002361CBD1EEE700BF0000F8FFFFFF07E053
:10BD60002DE9F0434D780F78012D4DD000F530636B
:10BD70006F4E4C6903EB47136E4D1F693E401E61C9
:10BD80001E6935401D616CB38D68012A6A4E2C44D2
:10BD90001F6904F1FF34B4FBF5F41FFA84FC06EAD2
:10BDA000C44405FB0CF544EA0704C5F312051C6105
:10BDB0001C6945EA04051D6121D0CA78012A0AD10F
:10BDC000D0F8082812F4807F1A680CBF42F00052A5
:10BDD00042F080521A601A6842F004421A60002051
:10BDE000BDE8F0838C68012A1D69C4F3120444EA9B
:10BDF00005041C611C6944F400241C61DDD1CA687F
:10BE0000002ADAD05A61D8E74B6900F51064002B9C
:10BE100037D104EB4714474E454D012AD4F810C0E2
:10BE20000CEA06062661266946F400262661266984
:10BE300005EA06052561CE7872D0012E59D1D0F8D9
:10BE4000085815F4807F25680CBF45F0005545F073
:10BE500080552560256845F004452560002ABED13F
:10BE60009BB203339C08BAD0CA6800F5805302EB3A
:10BE7000840403EB073352F8041BA2421960FAD181
:10BE8000ADE704EB4714D1F808E0DFF8A490C3F362
:10BE90001206D4F8108003EB0E0C08EA09090CF125
:10BEA000FF3CDFF89080C4F81090D4F81090BCFBF1
:10BEB000FEFE09EA0808DFF880C0C4F810800CEA2A
:10BEC000CE4CD4F810E04CEA0E0CC4F810C0D4F8F4
:10BED00010C046EA0C062661CE78012E10D0012A49
:10BEE00022D007F00F03D0F834789D403D43C0F8CE
:10BEF00034582368002043F004432360BDE8F083F6
:10BF00002569012A25F0C0452561256945F00055C0
:10BF1000256194D10D69002D91D0164665618CE79D
:10BF20000D69002D89D0F9E70D69002DF6D1E0E704
:10BF30000000F8FFFFFF07E00000F81F70B5D0F821
:10BF4000A852C1EBC1000C46002605EB80001C2165
:10BF5000C0F80822C0F8103280F8FC41C0F8146222
:10BF600080F8FD612B6901FB0451012B01F5FE7185
:10BF700008BFC0F80C22DAB228681CB9FFF764FECB
:10BF8000002070BDFFF7ECFE002070BD0E48D0F819
:10BF9000B03F10B5A3B190F8304D00F55260D3F822
:10BFA000042234B1002440230121FFF7C7FF2046BB
:10BFB00010BD4FF400730121FFF7C0FF204610BDF4
:10BFC0000224204610BD00BF7018012010B50C4C93
:10BFD000D4F80C3563B10B49013BD1F8F029C4F812
:10BFE0000C3512F8014BC1F8F029047013B101238C
:10BFF000184610BDFFF7CAFF0123184610BD00BF49
:10C0000070180120603A012013B5074CD4F8F039BC
:10C0100003B9FEE701A8FFF7D9FF0028F6D09DF885
:10C02000040002B010BD00BF603A012010B50B68DB
:10C03000064C074AC4F80C35C2F8F0090BB10020D1
:10C0400010BDFFF7A3FF002010BD00BF7018012036
:10C05000603A012070B5D0F8A052044695F8183225
:10C0600013B9D5F814323BB981212046FCF782FB85
:10C070006B7A022B07D070BD6B7A002BF4D10121B3
:10C08000FCF778FBF0E705F5037220461F2301213A
:10C09000BDE8704052E700BF2DE9F0410A46D0F8F4
:10C0A000A05200270B4E044685F838222F7205F562
:10C0B0000B720D238121C5F82C62D0F8A80208F07C
:10C0C00073F805F5037220461F230121BDE8F041F6
:10C0D00034E700BF555342532DE9F047137882B03F
:10C0E000914604468A465A2B5CD8DFE813F0CE000E
:10C0F0005B005B007D005B005B005B005B005B0046
:10C100005B005B005B005B005B005B005B005B0057
:10C110005B00B2005B005B005B005B005B005B00F0
:10C120005B00A90174005B005B0074005B005B00B6
:10C130005B005B00CD015B00F7015B005B003B0136
:10C140005B00E0005B005B005B005B0028015B00C4
:10C150005B005B005B005B005B005B005B005B0007
:10C160005B005B005B005B005B005B005B005B00F7
:10C170005B005B005B005B005B005B005B005B00E7
:10C180005B005B005B005B005B005B005B005B00D7
:10C190005B005B005B005B005B005B005B005B00C7
:10C1A0005B001802D0F8A0120524002091F85D323F
:10C1B0005A1C01EBC303D2B283F83C4283F840021D
:10C1C000042A00F003824FF0FF3581F85D222846F3
:10C1D00002B0BDE8F087D0F8A032002005465881B3
:10C1E000284602B0BDE8F087D0F8A042002104F153
:10C1F0000B0304F11D0003F8011F8342FBD17020E3
:10C2000094F85C320C25207394F85D02E574984232
:10C2100013D004EBC300013390F83C52DBB2A5739A
:10C22000042B90F84152257690F8400218BF84F80C
:10C230005C32607608BF84F85C121223638199F83F
:10C240000430122B98BF63810025284602B0BDE858
:10C25000F08799F80130D0F8A002DB0740F1838124
:10C26000072100F1120300F10B0583224181C3F184
:10C270000604D54901E092F8DC2103F80129E2180F
:10C28000AB4211FA82F2F6D1DEE7D0F8A062D6F81E
:10C290001472002F40F02D82D0F8A43208469B681B
:10C2A00098470546002840F06D8270818FE7D0F8EE
:10C2B000A062357A002D40F0908196F91832002B5B
:10C2C000C0F27081D0F8A43208469B6898470746B0
:10C2D000002840F07182D4F8A4325046DB689847B9
:10C2E0000546002840F08D82D9F80210D4F8A0024B
:10C2F00009BAD0F86072C6F86412B9F807305BBAB0
:10C300009BB21944C6F86832B94200F26882B6F8A6
:10C310005E12D6F8142203FB01F3934240F09E8193
:10C32000B3F5007F4FF00101204606F10C0228BF53
:10C330004FF4007331729BB2FFF700FE47E799F8A4
:10C340000150D0F8A03215F0020040F0F781D3F888
:10C350006012D3E9992422448A4200F20182054600
:10C36000588134E7D0F8A08298F80860002E40F099
:10C37000328198F91832002B80F2CE81D0F8A432A5
:10C3800008469B6898470546002840F04E82D9F839
:10C390000200D4F8A06200BAD6F86072C8F864024D
:10C3A000B9F807305BBA9BB21844C8F86832B84293
:10C3B00000F2F880B8F85E22022003FB02F3D8F8FE
:10C3C000142288F808009A4240F0EC80B6F85E32F9
:10C3D0004FF4007CD6F8687206F10C05D4F8A4225C
:10C3E000504607FB03F72946A8F80AC06745D2F86C
:10C3F0001080D6F8642228BF6746B7FBF3F39BB2E0
:10C40000C0470028C0F25F812A463B46D4F8A80204
:10C41000812107F0C9FEB6F85E52D6F83432B7FB78
:10C42000F5F5D6E99920DF1B2A44451BC6F834727E
:10C43000C6E99925002D7FF407AF03233372C6E6C2
:10C44000D0F8A072082000225F4E07F11303788114
:10C4500007F10B05C3F1070001E092F8E42103F8AE
:10C460000129C2189D4216FA82F2F6D1D4F8A432FC
:10C470005046DB68984700283FF4E6AEBB7B0025BA
:10C4800063F07F03BB73A2E6D0F8A062002506F13B
:10C490000B0306F1170203F8015F9342FBD1D4F8B6
:10C4A000A43250460DF1020201A95B6898470028AA
:10C4B00040F0F780019B0821BDF802200220013BDB
:10C4C000F17352BA0C211C0EF374F2821A0C1B0A7F
:10C4D00034747274B374B0827181B5E6D0F8A0621E
:10C4E0000846D4F8A43206F25E2206F518715B689D
:10C4F00098470546002840F0C180D6F860320821F0
:10C50000B6F85E22013B308252BA7181180EF37385
:10C51000190C72821B0A30737173B37357E6D0F82B
:10C52000A07208200022284E07F11303788107F13A
:10C530000B05C3F1070001E092F8EC2103F8012993
:10C54000C218AB4216FA82F2F6D1D4F8A4325046A1
:10C55000DB68984700283FF477AEFB7B002563F04B
:10C560007F03FB7333E6D4F8A44201EBC10199F8D1
:10C570000430E46904EB810422790532934228BF38
:10C5800013464381002B3FF45FAE013B9AB2531C2C
:10C590000C322344024413F8011D9C4202F8011995
:10C5A000F9D151E696F85D3205211A460133DBB226
:10C5B00006EBC202042B82F8405282F83C1200F0D3
:10C5C000A88086F85D323FE6281105084FF0FF3558
:10C5D00081F85D02FBE54646F8E6B6F85E5206F1E4
:10C5E0000C08D6F868720846D4F8A432414607FB16
:10C5F00005F7D6F86422D3F81490B7F5007F28BF6A
:10C600004FF40077B7FBF5F39BB2C8470028C0F2A0
:10C610002781B6F85E02D6F83432B7FBF0F1D6E9DE
:10C620009925DB1B0A446D1AC6F83432C6E99925F0
:10C6300025B920462946FFF72FFDC8E505FB00F385
:10C64000424620460121B3F5007F4FF0000528BF88
:10C650004FF400739BB2FFF771FCB8E590F85D32C0
:10C6600005215A1C00EBC303D2B283F8405283F871
:10C670003C12042A3AD080F85D22E5E5D4F8A022E5
:10C680000220002592F85D32591C02EBC303C9B2A7
:10C6900083F83C0283F84052042924D082F85D12CA
:10C6A000D2E5D4F8A022022092F85D32591C02EBA8
:10C6B000C303C9B283F8405283F83C020429EDD188
:10C6C00082F85D52C0E5D4F8A0220420002592F83B
:10C6D0005D32591C02EBC303C9B283F83C0283F8F4
:10C6E00040528142DAD182F85D5270E580F85D52A5
:10C6F0006DE596F85D32052100251A460133DBB25F
:10C7000006EBC202042B82F83C1282F840527FF4FE
:10C7100058AF86F85D525AE598F85D3205211A4601
:10C720000133DBB208EBC202042B82F8406282F8CC
:10C730003C1200F0918088F85D3285E593F85D2227
:10C740000520002511460132D2B203EBC101042AB3
:10C7500081F83C0281F840527BD083F85D2273E57A
:10C7600093F85D22052411460132D2B203EBC101D8
:10C77000042A81F8400281F83C42EED1054683F854
:10C780005D0224E5D4F8A0220220002592F85D3253
:10C7900019460133DBB202EBC101042B81F8407270
:10C7A00081F83C0218BF82F85D324FF0050308BFE4
:10C7B00082F85D7233720AE5D4F8A022022092F862
:10C7C0005D3219460133DBB202EBC101042B81F863
:10C7D000405281F83C0286D082F85D3234E590F810
:10C7E0005D3205211A460133DBB200EBC202042B95
:10C7F00082F8405282F83C123FF478AF80F85D3204
:10C8000022E5D4F8A022022092F85D3219460133C5
:10C81000DBB202EBC101042B81F8407281F83C02CB
:10C82000DAD13D4682F85D72D1E4D4F8A02202202C
:10C8300092F85D3219460133DBB202EBC101042BE1
:10C8400081F8406281F83C02C6D1354682F85D62CB
:10C85000BDE483F85D52BAE4354688F85D62B6E41B
:10C86000D4F8A0220420002592F85D321946013345
:10C87000DBB202EBC101834281F83C0281F84052F5
:10C88000AAD130E7F8B5D0F8A0420546267A5EB1C5
:10C89000012E07D104F21B2294F81912FFF71CFC99
:10C8A00000282FDB0020F8BDD0F8A832D4F81012F1
:10C8B000D3F83032D4F814221F2BC4E98C1208D1DB
:10C8C0002D4BD4F80C229A4203D194F81912012965
:10C8D0001DD994F85D32002105205A1C04EBC303D6
:10C8E000D2B283F83C0283F840120223042A28467D
:10C8F000637214BF84F85D2284F85D12FFF7AAFB0F
:10C900000020F8BD28460121FFF7C6FBCAE794F8CE
:10C910001A32013B0F2BDCD804F21B22FFF7DCFBA1
:10C920000028237A1DDB013B022BBBD96189F1B1C1
:10C93000D5F8A07204F10C020420D7F83432D7F8ED
:10C9400014425B1A87F83862A1423872D5F8A802FF
:10C95000C7F834320B4628BF2346812107F024FC58
:10C96000A0E7052BCED02846FFF774FB9AE72846B0
:10C97000FFF792FB96E700BF55534243D0F8A01251
:10C9800010B50B7A022B07D0033B012B02D80021F4
:10C99000FFF782FB002010BD01F21B2291F8191253
:10C9A0000446FFF799FB0028F4DA20460121FFF73F
:10C9B00073FBEFE7F0B5002383B00E460446ADF8F5
:10C9C00006300B78D0F8A07213F0600522D0202D2D
:10C9D00019D14A78FE2A11D0FF2A14D14A8892B977
:10C9E000CD8885B91B060ED44FF4807107F503720C
:10C9F0001F2339810121FFF7A1FA08E04D8815B9FD
:10CA0000CE88012E73D020460225FBF70FFF284663
:10CA100003B0F0BD4B780B2BF5D801A252F823F0F0
:10CA20005FCA000887CA000807CA000807CA0008CA
:10CA300007CA000807CA000807CA000807CA000892
:10CA400007CA000807CA000875CA000851CA0008CA
:10CA500090F87432032BD6D18B787B60D7E790F8AF
:10CA60007422032ACFD102220DF106011D46FCF7E4
:10CA7000A9F8CCE790F87432032BC4D1391D0122F8
:10CA8000FCF7A0F8C3E70979D0F8A80207F05AFB31
:10CA90003179D4F8A80207F0ABFBB38896F90420EB
:10CAA00003F00F03002A4FF0000203EB830304EBB3
:10CAB00083032ADBC3F84421237C9BBB4FF4007320
:10CAC000022201212046FBF783FC0123C4F85831E0
:10CAD000D4F8A0727B7A022B32D03279D20996D068
:10CAE000012B94D020460121FFF7D6FA8FE71A06D2
:10CAF00089D5D0F8A4329B69984703463246204630
:10CB000039463B60FCF75EF881E79A61237C83B984
:10CB10004FF40073022281212046FBF759FC0123C8
:10CB2000E362D5E74023022201212046FBF750FCB7
:10CB3000CBE74023022281212046FBF749FCEEE7A8
:10CB400020468121FBF716FE00237B725FE700BFC2
:10CB500070B5037C044601258BBB4FF400730222A1
:10CB60002946FBF735FC4FF40073C4F85851184EB2
:10CB7000812102222046FBF72BFC06F28C62E56243
:10CB80000025D4F8A432C4F8A0222846A6F894566A
:10CB9000A6F8E8581B6898470121D4F8A80207F0C6
:10CBA000D1FA8121D4F8A80207F0CCFA06F698024F
:10CBB00020461F230121FFF7C1F9284670BD4023FD
:10CBC00002222946FBF704FC4023C4F85851CEE763
:10CBD000C41200202DE9F0410A7884B000270D46E8
:10CBE00012F060060446D0F890328DF80D70ADF862
:10CBF0000E7016D0202E1AD1CE8806B3120643D559
:10CC000019460193D4F89432324668783E46D3F8F8
:10CC10000880C047019BEA8820461946FBF7D2FFEF
:10CC200009E04B780A2B20D00B2B28D08BB1204663
:10CC30000226FBF7FBFD304604B0BDE8F081D0F8DA
:10CC40009432324648789B689847304604B0BDE835
:10CC5000F08190F87432032B29D002262046FBF78E
:10CC6000E5FD304604B0BDE8F08190F87432032B46
:10CC7000F3D101220DF10D01FBF7A4FFDBE790F8E2
:10CC80007432032BD7D0E8E74A78032583F8016292
:10CC9000394683F800221A46C0F848613346C0F886
:10CCA0004C613E46C0F86C52FFF748F9C3E70222D8
:10CCB0000DF10E01FBF786FFBDE700BF2DE9F04146
:10CCC000037C04460125BBBB4FF400730222812183
:10CCD000FBF77EFB29464FF4007302222046E562F3
:10CCE000FBF776FBC4F858514FF0010808230322E4
:10CCF00082212046FBF76CFB4FF40770C4F840809C
:10CD000044F062F80546C4F8900258B3D4F894325F
:10CD100000271B689847267CC5F814724146D5F851
:10CD200004222046C5F81872AEB140233E46FFF7F4
:10CD300005F93046BDE8F081402302228121FBF74E
:10CD400047FB2946402302222046E562FBF740FBD1
:10CD5000C4F85851C8E74FF40073FFF7EFF83046B6
:10CD6000BDE8F0814646E4E770B5054641B9D0F824
:10CD70006C320C46032B10D0052B1FD0002070BD49
:10CD8000D0F88C329B6933B190F87422032A02D117
:10CD90009847002070BD022070BDD0E953639E42C9
:10CDA00012D8D0F88C321B6923B190F87422032A70
:10CDB00000D198472846FBF7F7FEDFE7C5F86C126D
:10CDC000FBF7D8FC204670BDF61AB342C0F84C61A0
:10CDD00028BF33469BB2FFF7B1F8204670BD00BFB5
:10CDE0002DE9F04F854E83B035686C6914F001046D
:10CDF00002D003B0BDE8F08F6A69AB691A42F8D07F
:10CE00006B69AA6913409F0703D56B6903F002039E
:10CE10006B616B69AA691340180379D4284643698A
:10CE2000826913405F0300F1D580426983691A4229
:10CE300000F1BA80436982691340190508D5D5F815
:10CE40000838DA0700F15383436903F40063436150
:10CE50004369826913401B0110D5436903F00063E5
:10CE6000436196F8F433002B40F04982012386F8A1
:10CE7000F433436DC3F38303C6F8F833436982691F
:10CE80001340DF0400F1CE814369826913409A04A4
:10CE900000F17181436982691340DB0612D5836911
:10CEA00023F0100383612B6AC3F3434203F00F01A5
:10CEB000022A00F0E582062A00F05F82836943F0CF
:10CEC000100383614369826913401F0700F10C82DC
:10CED000436982691340DD0200F10182436982697E
:10CEE00013409C0200F1F6814369826913405900A6
:10CEF00000F1EB814369826913405A077FF579AFEE
:10CF00004468630700F1E78243681C43446070E7AC
:10CF1000D5F81878D5F81C381F403F0C3FF47EAF89
:10CF2000DFF8D8A028464FF00008009406E07F08FC
:10CF300008F101080AF11C0A00F03382F907F6D55E
:10CF40005FFA88F100F5306B0BEB41129268D0F874
:10CF5000143802EA030919F0010F40F0278219F092
:10CF6000080F40F05A8219F0100F05D005F5306314
:10CF7000102203EB48139A6019F0200F09D0316991
:10CF8000012900F0558305F53063202203EB481397
:10CF90009A6019F4005FCAD005F530634FF400526F
:10CFA00003EB48139A60C2E7D5F8043823F0010375
:10CFB000C5F8043896F8F433012B00F0B781D6F8A1
:10CFC000003493F8752283F87422436903F0004318
:10CFD00043612FE7D0F81838D0F81C2813409BB2D3
:10CFE000002B3FF422AF05F510620095034F4FF080
:10CFF000000A1D469046019409E000BF7018012008
:10D000006D080AF1010A07F11C0700F0CC81E9075D
